:020000020000FC
:1000000000E00093C1000FEF0DBF08E00EBF00E05D
:1000100007B90FEF08B90FEF0AB900E00BB90FEFFE
:1000200004B900E005B91FE720E030E040E006B188
:100030001017E9F30E94600006B11017C1F3102FEA
:1000400000FF0E94300001FF0E94380002FF0E9462
:10005000410003FF0E94490004FF0E945100E7CFC6
:100060002F3019F023952BB9089520E02BB908956E
:10007000203019F02A952BB908952FE02BB935B906
:1000800008952F3019F0239525B9089520E025B95A
:100090000895203019F02A9525B908952FE025B943
:1000A0000895422F430F40FD206141FD206242FD33
:1000B000206443FD206844FD306135B92BB90895B3
:0A00C000FFEFFA95F030E9F708951C
:00000001FF
